{
  "_format": "hh-sol-artifact-1",
  "contractName": "MathArt",
  "sourceName": "contracts/MathArt.sol",
  "abi": [
    {
      "inputs": [
        {
          "internalType": "address",
          "name": "marketplaceAddress",
          "type": "address"
        }
      ],
      "stateMutability": "nonpayable",
      "type": "constructor"
    },
    {
      "anonymous": false,
      "inputs": [
        {
          "indexed": true,
          "internalType": "address",
          "name": "owner",
          "type": "address"
        },
        {
          "indexed": true,
          "internalType": "address",
          "name": "approved",
          "type": "address"
        },
        {
          "indexed": true,
          "internalType": "uint256",
          "name": "tokenId",
          "type": "uint256"
        }
      ],
      "name": "Approval",
      "type": "event"
    },
    {
      "anonymous": false,
      "inputs": [
        {
          "indexed": true,
          "internalType": "address",
          "name": "owner",
          "type": "address"
        },
        {
          "indexed": true,
          "internalType": "address",
          "name": "operator",
          "type": "address"
        },
        {
          "indexed": false,
          "internalType": "bool",
          "name": "approved",
          "type": "bool"
        }
      ],
      "name": "ApprovalForAll",
      "type": "event"
    },
    {
      "anonymous": false,
      "inputs": [
        {
          "indexed": true,
          "internalType": "address",
          "name": "from",
          "type": "address"
        },
        {
          "indexed": true,
          "internalType": "address",
          "name": "to",
          "type": "address"
        },
        {
          "indexed": true,
          "internalType": "uint256",
          "name": "tokenId",
          "type": "uint256"
        }
      ],
      "name": "Transfer",
      "type": "event"
    },
    {
      "inputs": [
        {
          "internalType": "address",
          "name": "to",
          "type": "address"
        },
        {
          "internalType": "uint256",
          "name": "tokenId",
          "type": "uint256"
        }
      ],
      "name": "approve",
      "outputs": [],
      "stateMutability": "nonpayable",
      "type": "function"
    },
    {
      "inputs": [
        {
          "internalType": "address",
          "name": "owner",
          "type": "address"
        }
      ],
      "name": "balanceOf",
      "outputs": [
        {
          "internalType": "uint256",
          "name": "",
          "type": "uint256"
        }
      ],
      "stateMutability": "view",
      "type": "function"
    },
    {
      "inputs": [
        {
          "internalType": "string",
          "name": "tokenURI",
          "type": "string"
        }
      ],
      "name": "createToken",
      "outputs": [
        {
          "internalType": "uint256",
          "name": "",
          "type": "uint256"
        }
      ],
      "stateMutability": "nonpayable",
      "type": "function"
    },
    {
      "inputs": [
        {
          "internalType": "uint256",
          "name": "tokenId",
          "type": "uint256"
        }
      ],
      "name": "getApproved",
      "outputs": [
        {
          "internalType": "address",
          "name": "",
          "type": "address"
        }
      ],
      "stateMutability": "view",
      "type": "function"
    },
    {
      "inputs": [],
      "name": "getCurrentItemId",
      "outputs": [
        {
          "internalType": "uint256",
          "name": "",
          "type": "uint256"
        }
      ],
      "stateMutability": "view",
      "type": "function"
    },
    {
      "inputs": [
        {
          "internalType": "address",
          "name": "owner",
          "type": "address"
        },
        {
          "internalType": "address",
          "name": "operator",
          "type": "address"
        }
      ],
      "name": "isApprovedForAll",
      "outputs": [
        {
          "internalType": "bool",
          "name": "",
          "type": "bool"
        }
      ],
      "stateMutability": "view",
      "type": "function"
    },
    {
      "inputs": [],
      "name": "marketAddress",
      "outputs": [
        {
          "internalType": "address",
          "name": "",
          "type": "address"
        }
      ],
      "stateMutability": "view",
      "type": "function"
    },
    {
      "inputs": [],
      "name": "name",
      "outputs": [
        {
          "internalType": "string",
          "name": "",
          "type": "string"
        }
      ],
      "stateMutability": "view",
      "type": "function"
    },
    {
      "inputs": [
        {
          "internalType": "uint256",
          "name": "tokenId",
          "type": "uint256"
        }
      ],
      "name": "ownerOf",
      "outputs": [
        {
          "internalType": "address",
          "name": "",
          "type": "address"
        }
      ],
      "stateMutability": "view",
      "type": "function"
    },
    {
      "inputs": [
        {
          "internalType": "address",
          "name": "from",
          "type": "address"
        },
        {
          "internalType": "address",
          "name": "to",
          "type": "address"
        },
        {
          "internalType": "uint256",
          "name": "tokenId",
          "type": "uint256"
        }
      ],
      "name": "safeTransferFrom",
      "outputs": [],
      "stateMutability": "nonpayable",
      "type": "function"
    },
    {
      "inputs": [
        {
          "internalType": "address",
          "name": "from",
          "type": "address"
        },
        {
          "internalType": "address",
          "name": "to",
          "type": "address"
        },
        {
          "internalType": "uint256",
          "name": "tokenId",
          "type": "uint256"
        },
        {
          "internalType": "bytes",
          "name": "_data",
          "type": "bytes"
        }
      ],
      "name": "safeTransferFrom",
      "outputs": [],
      "stateMutability": "nonpayable",
      "type": "function"
    },
    {
      "inputs": [
        {
          "internalType": "address",
          "name": "operator",
          "type": "address"
        },
        {
          "internalType": "bool",
          "name": "approved",
          "type": "bool"
        }
      ],
      "name": "setApprovalForAll",
      "outputs": [],
      "stateMutability": "nonpayable",
      "type": "function"
    },
    {
      "inputs": [
        {
          "internalType": "bytes4",
          "name": "interfaceId",
          "type": "bytes4"
        }
      ],
      "name": "supportsInterface",
      "outputs": [
        {
          "internalType": "bool",
          "name": "",
          "type": "bool"
        }
      ],
      "stateMutability": "view",
      "type": "function"
    },
    {
      "inputs": [],
      "name": "symbol",
      "outputs": [
        {
          "internalType": "string",
          "name": "",
          "type": "string"
        }
      ],
      "stateMutability": "view",
      "type": "function"
    },
    {
      "inputs": [
        {
          "internalType": "uint256",
          "name": "tokenId",
          "type": "uint256"
        }
      ],
      "name": "tokenURI",
      "outputs": [
        {
          "internalType": "string",
          "name": "",
          "type": "string"
        }
      ],
      "stateMutability": "view",
      "type": "function"
    },
    {
      "inputs": [
        {
          "internalType": "address",
          "name": "from",
          "type": "address"
        },
        {
          "internalType": "address",
          "name": "to",
          "type": "address"
        },
        {
          "internalType": "uint256",
          "name": "tokenId",
          "type": "uint256"
        }
      ],
      "name": "transferFrom",
      "outputs": [],
      "stateMutability": "nonpayable",
      "type": "function"
    },
    {
      "inputs": [
        {
          "internalType": "address",
          "name": "_marketAddress",
          "type": "address"
        }
      ],
      "name": "updateMarketAddress",
      "outputs": [],
      "stateMutability": "nonpayable",
      "type": "function"
    }
  ],
  "bytecode": "0x60806040523480156200001157600080fd5b5060405162002f0d38038062002f0d8339818101604052810190620000379190620001e6565b6040518060400160405280600781526020017f4d617468417274000000000000000000000000000000000000000000000000008152506040518060400160405280600381526020017f4d415400000000000000000000000000000000000000000000000000000000008152508160009080519060200190620000bb9291906200011f565b508060019080519060200190620000d49291906200011f565b50505080600860006101000a81548173ffffffffffffffffffffffffffffffffffffffff021916908373ffffffffffffffffffffffffffffffffffffffff16021790555050620002c5565b8280546200012d9062000246565b90600052602060002090601f0160209004810192826200015157600085556200019d565b82601f106200016c57805160ff19168380011785556200019d565b828001600101855582156200019d579182015b828111156200019c5782518255916020019190600101906200017f565b5b509050620001ac9190620001b0565b5090565b5b80821115620001cb576000816000905550600101620001b1565b5090565b600081519050620001e081620002ab565b92915050565b600060208284031215620001f957600080fd5b60006200020984828501620001cf565b91505092915050565b60006200021f8262000226565b9050919050565b600073ffffffffffffffffffffffffffffffffffffffff82169050919050565b600060028204905060018216806200025f57607f821691505b602082108114156200027657620002756200027c565b5b50919050565b7f4e487b7100000000000000000000000000000000000000000000000000000000600052602260045260246000fd5b620002b68162000212565b8114620002c257600080fd5b50565b612c3880620002d56000396000f3fe608060405234801561001057600080fd5b506004361061010b5760003560e01c806370a08231116100a2578063a5afbcb811610071578063a5afbcb8146102ca578063b88d4fde146102e6578063bf0d2e9014610302578063c87b56dd14610332578063e985e9c5146103625761010b565b806370a0823114610242578063956236411461027257806395d89b4114610290578063a22cb465146102ae5761010b565b806323b872dd116100de57806323b872dd146101aa57806342842e0e146101c657806345576f94146101e25780636352211e146102125761010b565b806301ffc9a71461011057806306fdde0314610140578063081812fc1461015e578063095ea7b31461018e575b600080fd5b61012a60048036038101906101259190611d61565b610392565b6040516101379190612566565b60405180910390f35b610148610474565b6040516101559190612581565b60405180910390f35b61017860048036038101906101739190611df4565b610506565b60405161018591906124ff565b60405180910390f35b6101a860048036038101906101a39190611d25565b61058b565b005b6101c460048036038101906101bf9190611c1f565b6106a3565b005b6101e060048036038101906101db9190611c1f565b610703565b005b6101fc60048036038101906101f79190611db3565b610723565b60405161020991906127a3565b60405180910390f35b61022c60048036038101906102279190611df4565b610787565b60405161023991906124ff565b60405180910390f35b61025c60048036038101906102579190611bba565b610839565b60405161026991906127a3565b60405180910390f35b61027a6108f1565b60405161028791906124ff565b60405180910390f35b610298610917565b6040516102a59190612581565b60405180910390f35b6102c860048036038101906102c39190611ce9565b6109a9565b005b6102e460048036038101906102df9190611bba565b610b2a565b005b61030060048036038101906102fb9190611c6e565b610b6e565b005b61031c60048036038101906103179190611bba565b610bd0565b60405161032991906127a3565b60405180910390f35b61034c60048036038101906103479190611df4565b610c4b565b6040516103599190612581565b60405180910390f35b61037c60048036038101906103779190611be3565b610d9d565b6040516103899190612566565b60405180910390f35b60007f80ac58cd000000000000000000000000000000000000000000000000000000007bffffffffffffffffffffffffffffffffffffffffffffffffffffffff1916827bffffffffffffffffffffffffffffffffffffffffffffffffffffffff1916148061045d57507f5b5e139f000000000000000000000000000000000000000000000000000000007bffffffffffffffffffffffffffffffffffffffffffffffffffffffff1916827bffffffffffffffffffffffffffffffffffffffffffffffffffffffff1916145b8061046d575061046c82610e31565b5b9050919050565b60606000805461048390612a2d565b80601f01602080910402602001604051908101604052809291908181526020018280546104af90612a2d565b80156104fc5780601f106104d1576101008083540402835291602001916104fc565b820191906000526020600020905b8154815290600101906020018083116104df57829003601f168201915b5050505050905090565b600061051182610e9b565b610550576040517f08c379a000000000000000000000000000000000000000000000000000000000815260040161054790612703565b60405180910390fd5b6004600083815260200190815260200160002060009054906101000a900473ffffffffffffffffffffffffffffffffffffffff169050919050565b600061059682610787565b90508073ffffffffffffffffffffffffffffffffffffffff168373ffffffffffffffffffffffffffffffffffffffff161415610607576040517f08c379a00000000000000000000000000000000000000000000000000000000081526004016105fe90612763565b60405180910390fd5b8073ffffffffffffffffffffffffffffffffffffffff16610626610f07565b73ffffffffffffffffffffffffffffffffffffffff16148061065557506106548161064f610f07565b610d9d565b5b610694576040517f08c379a000000000000000000000000000000000000000000000000000000000815260040161068b90612643565b60405180910390fd5b61069e8383610f0f565b505050565b6106b46106ae610f07565b82610fc8565b6106f3576040517f08c379a00000000000000000000000000000000000000000000000000000000081526004016106ea90612783565b60405180910390fd5b6106fe8383836110a6565b505050565b61071e83838360405180602001604052806000815250610b6e565b505050565b600061072f6007611302565b600061073b6007611318565b90506107473382611326565b61075181846114f4565b61077e600860009054906101000a900473ffffffffffffffffffffffffffffffffffffffff1660016109a9565b80915050919050565b6000806002600084815260200190815260200160002060009054906101000a900473ffffffffffffffffffffffffffffffffffffffff169050600073ffffffffffffffffffffffffffffffffffffffff168173ffffffffffffffffffffffffffffffffffffffff161415610830576040517f08c379a000000000000000000000000000000000000000000000000000000000815260040161082790612683565b60405180910390fd5b80915050919050565b60008073ffffffffffffffffffffffffffffffffffffffff168273ffffffffffffffffffffffffffffffffffffffff1614156108aa576040517f08c379a00000000000000000000000000000000000000000000000000000000081526004016108a190612663565b60405180910390fd5b600360008373ffffffffffffffffffffffffffffffffffffffff1673ffffffffffffffffffffffffffffffffffffffff168152602001908152602001600020549050919050565b600860009054906101000a900473ffffffffffffffffffffffffffffffffffffffff1681565b60606001805461092690612a2d565b80601f016020809104026020016040519081016040528092919081815260200182805461095290612a2d565b801561099f5780601f106109745761010080835404028352916020019161099f565b820191906000526020600020905b81548152906001019060200180831161098257829003601f168201915b5050505050905090565b6109b1610f07565b73ffffffffffffffffffffffffffffffffffffffff168273ffffffffffffffffffffffffffffffffffffffff161415610a1f576040517f08c379a0000000000000000000000000000000000000000000000000000000008152600401610a1690612603565b60405180910390fd5b8060056000610a2c610f07565b73ffffffffffffffffffffffffffffffffffffffff1673ffffffffffffffffffffffffffffffffffffffff16815260200190815260200160002060008473ffffffffffffffffffffffffffffffffffffffff1673ffffffffffffffffffffffffffffffffffffffff16815260200190815260200160002060006101000a81548160ff0219169083151502179055508173ffffffffffffffffffffffffffffffffffffffff16610ad9610f07565b73ffffffffffffffffffffffffffffffffffffffff167f17307eab39ab6107e8899845ad3d59bd9653f200f220920489ca2b5937696c3183604051610b1e9190612566565b60405180910390a35050565b80600860006101000a81548173ffffffffffffffffffffffffffffffffffffffff021916908373ffffffffffffffffffffffffffffffffffffffff16021790555050565b610b7f610b79610f07565b83610fc8565b610bbe576040517f08c379a0000000000000000000000000000000000000000000000000000000008152600401610bb590612783565b60405180910390fd5b610bca84848484611568565b50505050565b600080610bdd6007611318565b90505b60018110610c40578273ffffffffffffffffffffffffffffffffffffffff16610c0882610787565b73ffffffffffffffffffffffffffffffffffffffff161415610c2d5780915050610c46565b8080610c3890612a03565b915050610be0565b50600090505b919050565b6060610c5682610e9b565b610c95576040517f08c379a0000000000000000000000000000000000000000000000000000000008152600401610c8c906126e3565b60405180910390fd5b6000600660008481526020019081526020016000208054610cb590612a2d565b80601f0160208091040260200160405190810160405280929190818152602001828054610ce190612a2d565b8015610d2e5780601f10610d0357610100808354040283529160200191610d2e565b820191906000526020600020905b815481529060010190602001808311610d1157829003601f168201915b505050505090506000610d3f6115c4565b9050600081511415610d55578192505050610d98565b600082511115610d8a578082604051602001610d729291906124db565b60405160208183030381529060405292505050610d98565b610d93846115db565b925050505b919050565b6000600560008473ffffffffffffffffffffffffffffffffffffffff1673ffffffffffffffffffffffffffffffffffffffff16815260200190815260200160002060008373ffffffffffffffffffffffffffffffffffffffff1673ffffffffffffffffffffffffffffffffffffffff16815260200190815260200160002060009054906101000a900460ff16905092915050565b60007f01ffc9a7000000000000000000000000000000000000000000000000000000007bffffffffffffffffffffffffffffffffffffffffffffffffffffffff1916827bffffffffffffffffffffffffffffffffffffffffffffffffffffffff1916149050919050565b60008073ffffffffffffffffffffffffffffffffffffffff166002600084815260200190815260200160002060009054906101000a900473ffffffffffffffffffffffffffffffffffffffff1673ffffffffffffffffffffffffffffffffffffffff1614159050919050565b600033905090565b816004600083815260200190815260200160002060006101000a81548173ffffffffffffffffffffffffffffffffffffffff021916908373ffffffffffffffffffffffffffffffffffffffff160217905550808273ffffffffffffffffffffffffffffffffffffffff16610f8283610787565b73ffffffffffffffffffffffffffffffffffffffff167f8c5be1e5ebec7d5bd14f71427d1e84f3dd0314c0f7b2291e5b200ac8c7c3b92560405160405180910390a45050565b6000610fd382610e9b565b611012576040517f08c379a000000000000000000000000000000000000000000000000000000000815260040161100990612623565b60405180910390fd5b600061101d83610787565b90508073ffffffffffffffffffffffffffffffffffffffff168473ffffffffffffffffffffffffffffffffffffffff16148061108c57508373ffffffffffffffffffffffffffffffffffffffff1661107484610506565b73ffffffffffffffffffffffffffffffffffffffff16145b8061109d575061109c8185610d9d565b5b91505092915050565b8273ffffffffffffffffffffffffffffffffffffffff166110c682610787565b73ffffffffffffffffffffffffffffffffffffffff161461111c576040517f08c379a000000000000000000000000000000000000000000000000000000000815260040161111390612723565b60405180910390fd5b600073ffffffffffffffffffffffffffffffffffffffff168273ffffffffffffffffffffffffffffffffffffffff16141561118c576040517f08c379a0000000000000000000000000000000000000000000000000000000008152600401611183906125e3565b60405180910390fd5b611197838383611682565b6111a2600082610f0f565b6001600360008573ffffffffffffffffffffffffffffffffffffffff1673ffffffffffffffffffffffffffffffffffffffff16815260200190815260200160002060008282546111f29190612919565b925050819055506001600360008473ffffffffffffffffffffffffffffffffffffffff1673ffffffffffffffffffffffffffffffffffffffff16815260200190815260200160002060008282546112499190612892565b92505081905550816002600083815260200190815260200160002060006101000a81548173ffffffffffffffffffffffffffffffffffffffff021916908373ffffffffffffffffffffffffffffffffffffffff160217905550808273ffffffffffffffffffffffffffffffffffffffff168473ffffffffffffffffffffffffffffffffffffffff167fddf252ad1be2c89b69c2b068fc378daa952ba7f163c4a11628f55a4df523b3ef60405160405180910390a4505050565b6001816000016000828254019250508190555050565b600081600001549050919050565b600073ffffffffffffffffffffffffffffffffffffffff168273ffffffffffffffffffffffffffffffffffffffff161415611396576040517f08c379a000000000000000000000000000000000000000000000000000000000815260040161138d906126c3565b60405180910390fd5b61139f81610e9b565b156113df576040517f08c379a00000000000000000000000000000000000000000000000000000000081526004016113d6906125c3565b60405180910390fd5b6113eb60008383611682565b6001600360008473ffffffffffffffffffffffffffffffffffffffff1673ffffffffffffffffffffffffffffffffffffffff168152602001908152602001600020600082825461143b9190612892565b92505081905550816002600083815260200190815260200160002060006101000a81548173ffffffffffffffffffffffffffffffffffffffff021916908373ffffffffffffffffffffffffffffffffffffffff160217905550808273ffffffffffffffffffffffffffffffffffffffff16600073ffffffffffffffffffffffffffffffffffffffff167fddf252ad1be2c89b69c2b068fc378daa952ba7f163c4a11628f55a4df523b3ef60405160405180910390a45050565b6114fd82610e9b565b61153c576040517f08c379a0000000000000000000000000000000000000000000000000000000008152600401611533906126a3565b60405180910390fd5b806006600084815260200190815260200160002090805190602001906115639291906119de565b505050565b6115738484846110a6565b61157f84848484611687565b6115be576040517f08c379a00000000000000000000000000000000000000000000000000000000081526004016115b5906125a3565b60405180910390fd5b50505050565b606060405180602001604052806000815250905090565b60606115e682610e9b565b611625576040517f08c379a000000000000000000000000000000000000000000000000000000000815260040161161c90612743565b60405180910390fd5b600061162f6115c4565b9050600081511161164f576040518060200160405280600081525061167a565b806116598461181e565b60405160200161166a9291906124db565b6040516020818303038152906040525b915050919050565b505050565b60006116a88473ffffffffffffffffffffffffffffffffffffffff166119cb565b15611811578373ffffffffffffffffffffffffffffffffffffffff1663150b7a026116d1610f07565b8786866040518563ffffffff1660e01b81526004016116f3949392919061251a565b602060405180830381600087803b15801561170d57600080fd5b505af192505050801561173e57506040513d601f19601f8201168201806040525081019061173b9190611d8a565b60015b6117c1573d806000811461176e576040519150601f19603f3d011682016040523d82523d6000602084013e611773565b606091505b506000815114156117b9576040517f08c379a00000000000000000000000000000000000000000000000000000000081526004016117b0906125a3565b60405180910390fd5b805181602001fd5b63150b7a0260e01b7bffffffffffffffffffffffffffffffffffffffffffffffffffffffff1916817bffffffffffffffffffffffffffffffffffffffffffffffffffffffff191614915050611816565b600190505b949350505050565b60606000821415611866576040518060400160405280600181526020017f300000000000000000000000000000000000000000000000000000000000000081525090506119c6565b600082905060005b6000821461189857808061188190612a5f565b915050600a8261189191906128e8565b915061186e565b60008167ffffffffffffffff8111156118da577f4e487b7100000000000000000000000000000000000000000000000000000000600052604160045260246000fd5b6040519080825280601f01601f19166020018201604052801561190c5781602001600182028036833780820191505090505b5090505b600085146119bf576001826119259190612919565b9150600a856119349190612aa8565b60306119409190612892565b60f81b81838151811061197c577f4e487b7100000000000000000000000000000000000000000000000000000000600052603260045260246000fd5b60200101907effffffffffffffffffffffffffffffffffffffffffffffffffffffffffffff1916908160001a905350600a856119b891906128e8565b9450611910565b8093505050505b919050565b600080823b905060008111915050919050565b8280546119ea90612a2d565b90600052602060002090601f016020900481019282611a0c5760008555611a53565b82601f10611a2557805160ff1916838001178555611a53565b82800160010185558215611a53579182015b82811115611a52578251825591602001919060010190611a37565b5b509050611a609190611a64565b5090565b5b80821115611a7d576000816000905550600101611a65565b5090565b6000611a94611a8f846127ef565b6127be565b905082815260208101848484011115611aac57600080fd5b611ab78482856129c1565b509392505050565b6000611ad2611acd8461281f565b6127be565b905082815260208101848484011115611aea57600080fd5b611af58482856129c1565b509392505050565b600081359050611b0c81612ba6565b92915050565b600081359050611b2181612bbd565b92915050565b600081359050611b3681612bd4565b92915050565b600081519050611b4b81612bd4565b92915050565b600082601f830112611b6257600080fd5b8135611b72848260208601611a81565b91505092915050565b600082601f830112611b8c57600080fd5b8135611b9c848260208601611abf565b91505092915050565b600081359050611bb481612beb565b92915050565b600060208284031215611bcc57600080fd5b6000611bda84828501611afd565b91505092915050565b60008060408385031215611bf657600080fd5b6000611c0485828601611afd565b9250506020611c1585828601611afd565b9150509250929050565b600080600060608486031215611c3457600080fd5b6000611c4286828701611afd565b9350506020611c5386828701611afd565b9250506040611c6486828701611ba5565b9150509250925092565b60008060008060808587031215611c8457600080fd5b6000611c9287828801611afd565b9450506020611ca387828801611afd565b9350506040611cb487828801611ba5565b925050606085013567ffffffffffffffff811115611cd157600080fd5b611cdd87828801611b51565b91505092959194509250565b60008060408385031215611cfc57600080fd5b6000611d0a85828601611afd565b9250506020611d1b85828601611b12565b9150509250929050565b60008060408385031215611d3857600080fd5b6000611d4685828601611afd565b9250506020611d5785828601611ba5565b9150509250929050565b600060208284031215611d7357600080fd5b6000611d8184828501611b27565b91505092915050565b600060208284031215611d9c57600080fd5b6000611daa84828501611b3c565b91505092915050565b600060208284031215611dc557600080fd5b600082013567ffffffffffffffff811115611ddf57600080fd5b611deb84828501611b7b565b91505092915050565b600060208284031215611e0657600080fd5b6000611e1484828501611ba5565b91505092915050565b611e268161294d565b82525050565b611e358161295f565b82525050565b6000611e468261284f565b611e508185612865565b9350611e608185602086016129d0565b611e6981612b95565b840191505092915050565b6000611e7f8261285a565b611e898185612876565b9350611e998185602086016129d0565b611ea281612b95565b840191505092915050565b6000611eb88261285a565b611ec28185612887565b9350611ed28185602086016129d0565b80840191505092915050565b6000611eeb603283612876565b91507f4552433732313a207472616e7366657220746f206e6f6e20455243373231526560008301527f63656976657220696d706c656d656e74657200000000000000000000000000006020830152604082019050919050565b6000611f51601c83612876565b91507f4552433732313a20746f6b656e20616c7265616479206d696e746564000000006000830152602082019050919050565b6000611f91602483612876565b91507f4552433732313a207472616e7366657220746f20746865207a65726f2061646460008301527f72657373000000000000000000000000000000000000000000000000000000006020830152604082019050919050565b6000611ff7601983612876565b91507f4552433732313a20617070726f766520746f2063616c6c6572000000000000006000830152602082019050919050565b6000612037602c83612876565b91507f4552433732313a206f70657261746f7220717565727920666f72206e6f6e657860008301527f697374656e7420746f6b656e00000000000000000000000000000000000000006020830152604082019050919050565b600061209d603883612876565b91507f4552433732313a20617070726f76652063616c6c6572206973206e6f74206f7760008301527f6e6572206e6f7220617070726f76656420666f7220616c6c00000000000000006020830152604082019050919050565b6000612103602a83612876565b91507f4552433732313a2062616c616e636520717565727920666f7220746865207a6560008301527f726f2061646472657373000000000000000000000000000000000000000000006020830152604082019050919050565b6000612169602983612876565b91507f4552433732313a206f776e657220717565727920666f72206e6f6e657869737460008301527f656e7420746f6b656e00000000000000000000000000000000000000000000006020830152604082019050919050565b60006121cf602e83612876565b91507f45524337323155524953746f726167653a2055524920736574206f66206e6f6e60008301527f6578697374656e7420746f6b656e0000000000000000000000000000000000006020830152604082019050919050565b6000612235602083612876565b91507f4552433732313a206d696e7420746f20746865207a65726f20616464726573736000830152602082019050919050565b6000612275603183612876565b91507f45524337323155524953746f726167653a2055524920717565727920666f722060008301527f6e6f6e6578697374656e7420746f6b656e0000000000000000000000000000006020830152604082019050919050565b60006122db602c83612876565b91507f4552433732313a20617070726f76656420717565727920666f72206e6f6e657860008301527f697374656e7420746f6b656e00000000000000000000000000000000000000006020830152604082019050919050565b6000612341602983612876565b91507f4552433732313a207472616e73666572206f6620746f6b656e2074686174206960008301527f73206e6f74206f776e00000000000000000000000000000000000000000000006020830152604082019050919050565b60006123a7602f83612876565b91507f4552433732314d657461646174613a2055524920717565727920666f72206e6f60008301527f6e6578697374656e7420746f6b656e00000000000000000000000000000000006020830152604082019050919050565b600061240d602183612876565b91507f4552433732313a20617070726f76616c20746f2063757272656e74206f776e6560008301527f72000000000000000000000000000000000000000000000000000000000000006020830152604082019050919050565b6000612473603183612876565b91507f4552433732313a207472616e736665722063616c6c6572206973206e6f74206f60008301527f776e6572206e6f7220617070726f7665640000000000000000000000000000006020830152604082019050919050565b6124d5816129b7565b82525050565b60006124e78285611ead565b91506124f38284611ead565b91508190509392505050565b60006020820190506125146000830184611e1d565b92915050565b600060808201905061252f6000830187611e1d565b61253c6020830186611e1d565b61254960408301856124cc565b818103606083015261255b8184611e3b565b905095945050505050565b600060208201905061257b6000830184611e2c565b92915050565b6000602082019050818103600083015261259b8184611e74565b905092915050565b600060208201905081810360008301526125bc81611ede565b9050919050565b600060208201905081810360008301526125dc81611f44565b9050919050565b600060208201905081810360008301526125fc81611f84565b9050919050565b6000602082019050818103600083015261261c81611fea565b9050919050565b6000602082019050818103600083015261263c8161202a565b9050919050565b6000602082019050818103600083015261265c81612090565b9050919050565b6000602082019050818103600083015261267c816120f6565b9050919050565b6000602082019050818103600083015261269c8161215c565b9050919050565b600060208201905081810360008301526126bc816121c2565b9050919050565b600060208201905081810360008301526126dc81612228565b9050919050565b600060208201905081810360008301526126fc81612268565b9050919050565b6000602082019050818103600083015261271c816122ce565b9050919050565b6000602082019050818103600083015261273c81612334565b9050919050565b6000602082019050818103600083015261275c8161239a565b9050919050565b6000602082019050818103600083015261277c81612400565b9050919050565b6000602082019050818103600083015261279c81612466565b9050919050565b60006020820190506127b860008301846124cc565b92915050565b6000604051905081810181811067ffffffffffffffff821117156127e5576127e4612b66565b5b8060405250919050565b600067ffffffffffffffff82111561280a57612809612b66565b5b601f19601f8301169050602081019050919050565b600067ffffffffffffffff82111561283a57612839612b66565b5b601f19601f8301169050602081019050919050565b600081519050919050565b600081519050919050565b600082825260208201905092915050565b600082825260208201905092915050565b600081905092915050565b600061289d826129b7565b91506128a8836129b7565b9250827fffffffffffffffffffffffffffffffffffffffffffffffffffffffffffffffff038211156128dd576128dc612ad9565b5b828201905092915050565b60006128f3826129b7565b91506128fe836129b7565b92508261290e5761290d612b08565b5b828204905092915050565b6000612924826129b7565b915061292f836129b7565b92508282101561294257612941612ad9565b5b828203905092915050565b600061295882612997565b9050919050565b60008115159050919050565b60007fffffffff0000000000000000000000000000000000000000000000000000000082169050919050565b600073ffffffffffffffffffffffffffffffffffffffff82169050919050565b6000819050919050565b82818337600083830152505050565b60005b838110156129ee5780820151818401526020810190506129d3565b838111156129fd576000848401525b50505050565b6000612a0e826129b7565b91506000821415612a2257612a21612ad9565b5b600182039050919050565b60006002820490506001821680612a4557607f821691505b60208210811415612a5957612a58612b37565b5b50919050565b6000612a6a826129b7565b91507fffffffffffffffffffffffffffffffffffffffffffffffffffffffffffffffff821415612a9d57612a9c612ad9565b5b600182019050919050565b6000612ab3826129b7565b9150612abe836129b7565b925082612ace57612acd612b08565b5b828206905092915050565b7f4e487b7100000000000000000000000000000000000000000000000000000000600052601160045260246000fd5b7f4e487b7100000000000000000000000000000000000000000000000000000000600052601260045260246000fd5b7f4e487b7100000000000000000000000000000000000000000000000000000000600052602260045260246000fd5b7f4e487b7100000000000000000000000000000000000000000000000000000000600052604160045260246000fd5b6000601f19601f8301169050919050565b612baf8161294d565b8114612bba57600080fd5b50565b612bc68161295f565b8114612bd157600080fd5b50565b612bdd8161296b565b8114612be857600080fd5b50565b612bf4816129b7565b8114612bff57600080fd5b5056fea2646970667358221220836765b3dec804d6303df93e1d112b73ec6e6326434f473206fe550e867507cf64736f6c63430008000033",
  "linkReferences": {},
  "deployedLinkReferences": {}
}