{
  "_format": "hh-sol-artifact-1",
  "contractName": "NFiTMarket",
  "sourceName": "contracts/NFiTMarket.sol",
  "abi": [
    {
      "inputs": [
        {
          "internalType": "uint256",
          "name": "itemId",
          "type": "uint256"
        }
      ],
      "name": "buyNFT",
      "outputs": [],
      "stateMutability": "payable",
      "type": "function"
    },
    {
      "inputs": [
        {
          "internalType": "uint256",
          "name": "itemId",
          "type": "uint256"
        }
      ],
      "name": "downloadNFT",
      "outputs": [],
      "stateMutability": "nonpayable",
      "type": "function"
    },
    {
      "inputs": [],
      "name": "getCurrentItemId",
      "outputs": [
        {
          "internalType": "uint256",
          "name": "",
          "type": "uint256"
        }
      ],
      "stateMutability": "view",
      "type": "function"
    },
    {
      "inputs": [
        {
          "internalType": "uint256",
          "name": "itemId",
          "type": "uint256"
        }
      ],
      "name": "getItemInfo",
      "outputs": [
        {
          "components": [
            {
              "internalType": "uint256",
              "name": "itemId",
              "type": "uint256"
            },
            {
              "internalType": "address",
              "name": "nftContract",
              "type": "address"
            },
            {
              "internalType": "uint256",
              "name": "tokenId",
              "type": "uint256"
            },
            {
              "internalType": "address payable",
              "name": "creator",
              "type": "address"
            },
            {
              "internalType": "address payable",
              "name": "pawnor",
              "type": "address"
            },
            {
              "internalType": "address payable",
              "name": "owner",
              "type": "address"
            },
            {
              "internalType": "uint256",
              "name": "sellPrice",
              "type": "uint256"
            },
            {
              "internalType": "uint256",
              "name": "loanPrice",
              "type": "uint256"
            },
            {
              "internalType": "uint256",
              "name": "redeemPrice",
              "type": "uint256"
            },
            {
              "internalType": "uint256",
              "name": "royalty",
              "type": "uint256"
            },
            {
              "internalType": "uint256",
              "name": "deadline",
              "type": "uint256"
            },
            {
              "internalType": "enum NFiTMarket.State",
              "name": "state",
              "type": "uint8"
            }
          ],
          "internalType": "struct NFiTMarket.NFiTItem",
          "name": "",
          "type": "tuple"
        }
      ],
      "stateMutability": "view",
      "type": "function"
    },
    {
      "inputs": [],
      "name": "getPublishedNFT",
      "outputs": [
        {
          "components": [
            {
              "internalType": "uint256",
              "name": "itemId",
              "type": "uint256"
            },
            {
              "internalType": "address",
              "name": "nftContract",
              "type": "address"
            },
            {
              "internalType": "uint256",
              "name": "tokenId",
              "type": "uint256"
            },
            {
              "internalType": "address payable",
              "name": "creator",
              "type": "address"
            },
            {
              "internalType": "address payable",
              "name": "pawnor",
              "type": "address"
            },
            {
              "internalType": "address payable",
              "name": "owner",
              "type": "address"
            },
            {
              "internalType": "uint256",
              "name": "sellPrice",
              "type": "uint256"
            },
            {
              "internalType": "uint256",
              "name": "loanPrice",
              "type": "uint256"
            },
            {
              "internalType": "uint256",
              "name": "redeemPrice",
              "type": "uint256"
            },
            {
              "internalType": "uint256",
              "name": "royalty",
              "type": "uint256"
            },
            {
              "internalType": "uint256",
              "name": "deadline",
              "type": "uint256"
            },
            {
              "internalType": "enum NFiTMarket.State",
              "name": "state",
              "type": "uint8"
            }
          ],
          "internalType": "struct NFiTMarket.NFiTItem[]",
          "name": "itemList",
          "type": "tuple[]"
        }
      ],
      "stateMutability": "view",
      "type": "function"
    },
    {
      "inputs": [
        {
          "internalType": "address",
          "name": "user",
          "type": "address"
        }
      ],
      "name": "getUserOwnedNFT",
      "outputs": [
        {
          "components": [
            {
              "internalType": "uint256",
              "name": "itemId",
              "type": "uint256"
            },
            {
              "internalType": "address",
              "name": "nftContract",
              "type": "address"
            },
            {
              "internalType": "uint256",
              "name": "tokenId",
              "type": "uint256"
            },
            {
              "internalType": "address payable",
              "name": "creator",
              "type": "address"
            },
            {
              "internalType": "address payable",
              "name": "pawnor",
              "type": "address"
            },
            {
              "internalType": "address payable",
              "name": "owner",
              "type": "address"
            },
            {
              "internalType": "uint256",
              "name": "sellPrice",
              "type": "uint256"
            },
            {
              "internalType": "uint256",
              "name": "loanPrice",
              "type": "uint256"
            },
            {
              "internalType": "uint256",
              "name": "redeemPrice",
              "type": "uint256"
            },
            {
              "internalType": "uint256",
              "name": "royalty",
              "type": "uint256"
            },
            {
              "internalType": "uint256",
              "name": "deadline",
              "type": "uint256"
            },
            {
              "internalType": "enum NFiTMarket.State",
              "name": "state",
              "type": "uint8"
            }
          ],
          "internalType": "struct NFiTMarket.NFiTItem[]",
          "name": "itemList",
          "type": "tuple[]"
        }
      ],
      "stateMutability": "view",
      "type": "function"
    },
    {
      "inputs": [
        {
          "internalType": "address",
          "name": "user",
          "type": "address"
        }
      ],
      "name": "getUserPawnedNFT",
      "outputs": [
        {
          "components": [
            {
              "internalType": "uint256",
              "name": "itemId",
              "type": "uint256"
            },
            {
              "internalType": "address",
              "name": "nftContract",
              "type": "address"
            },
            {
              "internalType": "uint256",
              "name": "tokenId",
              "type": "uint256"
            },
            {
              "internalType": "address payable",
              "name": "creator",
              "type": "address"
            },
            {
              "internalType": "address payable",
              "name": "pawnor",
              "type": "address"
            },
            {
              "internalType": "address payable",
              "name": "owner",
              "type": "address"
            },
            {
              "internalType": "uint256",
              "name": "sellPrice",
              "type": "uint256"
            },
            {
              "internalType": "uint256",
              "name": "loanPrice",
              "type": "uint256"
            },
            {
              "internalType": "uint256",
              "name": "redeemPrice",
              "type": "uint256"
            },
            {
              "internalType": "uint256",
              "name": "royalty",
              "type": "uint256"
            },
            {
              "internalType": "uint256",
              "name": "deadline",
              "type": "uint256"
            },
            {
              "internalType": "enum NFiTMarket.State",
              "name": "state",
              "type": "uint8"
            }
          ],
          "internalType": "struct NFiTMarket.NFiTItem[]",
          "name": "itemList",
          "type": "tuple[]"
        }
      ],
      "stateMutability": "view",
      "type": "function"
    },
    {
      "inputs": [
        {
          "internalType": "address",
          "name": "user",
          "type": "address"
        }
      ],
      "name": "getUserPublishedNFT",
      "outputs": [
        {
          "components": [
            {
              "internalType": "uint256",
              "name": "itemId",
              "type": "uint256"
            },
            {
              "internalType": "address",
              "name": "nftContract",
              "type": "address"
            },
            {
              "internalType": "uint256",
              "name": "tokenId",
              "type": "uint256"
            },
            {
              "internalType": "address payable",
              "name": "creator",
              "type": "address"
            },
            {
              "internalType": "address payable",
              "name": "pawnor",
              "type": "address"
            },
            {
              "internalType": "address payable",
              "name": "owner",
              "type": "address"
            },
            {
              "internalType": "uint256",
              "name": "sellPrice",
              "type": "uint256"
            },
            {
              "internalType": "uint256",
              "name": "loanPrice",
              "type": "uint256"
            },
            {
              "internalType": "uint256",
              "name": "redeemPrice",
              "type": "uint256"
            },
            {
              "internalType": "uint256",
              "name": "royalty",
              "type": "uint256"
            },
            {
              "internalType": "uint256",
              "name": "deadline",
              "type": "uint256"
            },
            {
              "internalType": "enum NFiTMarket.State",
              "name": "state",
              "type": "uint8"
            }
          ],
          "internalType": "struct NFiTMarket.NFiTItem[]",
          "name": "itemList",
          "type": "tuple[]"
        }
      ],
      "stateMutability": "view",
      "type": "function"
    },
    {
      "inputs": [
        {
          "internalType": "address",
          "name": "user",
          "type": "address"
        }
      ],
      "name": "getUserReceivedNFT",
      "outputs": [
        {
          "components": [
            {
              "internalType": "uint256",
              "name": "itemId",
              "type": "uint256"
            },
            {
              "internalType": "address",
              "name": "nftContract",
              "type": "address"
            },
            {
              "internalType": "uint256",
              "name": "tokenId",
              "type": "uint256"
            },
            {
              "internalType": "address payable",
              "name": "creator",
              "type": "address"
            },
            {
              "internalType": "address payable",
              "name": "pawnor",
              "type": "address"
            },
            {
              "internalType": "address payable",
              "name": "owner",
              "type": "address"
            },
            {
              "internalType": "uint256",
              "name": "sellPrice",
              "type": "uint256"
            },
            {
              "internalType": "uint256",
              "name": "loanPrice",
              "type": "uint256"
            },
            {
              "internalType": "uint256",
              "name": "redeemPrice",
              "type": "uint256"
            },
            {
              "internalType": "uint256",
              "name": "royalty",
              "type": "uint256"
            },
            {
              "internalType": "uint256",
              "name": "deadline",
              "type": "uint256"
            },
            {
              "internalType": "enum NFiTMarket.State",
              "name": "state",
              "type": "uint8"
            }
          ],
          "internalType": "struct NFiTMarket.NFiTItem[]",
          "name": "itemList",
          "type": "tuple[]"
        }
      ],
      "stateMutability": "view",
      "type": "function"
    },
    {
      "inputs": [
        {
          "internalType": "uint256",
          "name": "",
          "type": "uint256"
        }
      ],
      "name": "id2NFiTItem",
      "outputs": [
        {
          "internalType": "uint256",
          "name": "itemId",
          "type": "uint256"
        },
        {
          "internalType": "address",
          "name": "nftContract",
          "type": "address"
        },
        {
          "internalType": "uint256",
          "name": "tokenId",
          "type": "uint256"
        },
        {
          "internalType": "address payable",
          "name": "creator",
          "type": "address"
        },
        {
          "internalType": "address payable",
          "name": "pawnor",
          "type": "address"
        },
        {
          "internalType": "address payable",
          "name": "owner",
          "type": "address"
        },
        {
          "internalType": "uint256",
          "name": "sellPrice",
          "type": "uint256"
        },
        {
          "internalType": "uint256",
          "name": "loanPrice",
          "type": "uint256"
        },
        {
          "internalType": "uint256",
          "name": "redeemPrice",
          "type": "uint256"
        },
        {
          "internalType": "uint256",
          "name": "royalty",
          "type": "uint256"
        },
        {
          "internalType": "uint256",
          "name": "deadline",
          "type": "uint256"
        },
        {
          "internalType": "enum NFiTMarket.State",
          "name": "state",
          "type": "uint8"
        }
      ],
      "stateMutability": "view",
      "type": "function"
    },
    {
      "inputs": [
        {
          "internalType": "uint256",
          "name": "itemId",
          "type": "uint256"
        }
      ],
      "name": "receiveNFT",
      "outputs": [],
      "stateMutability": "payable",
      "type": "function"
    },
    {
      "inputs": [
        {
          "internalType": "uint256",
          "name": "itemId",
          "type": "uint256"
        }
      ],
      "name": "redeemNFT",
      "outputs": [],
      "stateMutability": "payable",
      "type": "function"
    },
    {
      "inputs": [
        {
          "internalType": "uint256",
          "name": "itemId",
          "type": "uint256"
        }
      ],
      "name": "retrieveNFT",
      "outputs": [],
      "stateMutability": "nonpayable",
      "type": "function"
    },
    {
      "inputs": [
        {
          "internalType": "uint256",
          "name": "itemId",
          "type": "uint256"
        },
        {
          "internalType": "uint256",
          "name": "sellPrice",
          "type": "uint256"
        },
        {
          "internalType": "uint256",
          "name": "loanPrice",
          "type": "uint256"
        },
        {
          "internalType": "uint256",
          "name": "redeemPrice",
          "type": "uint256"
        },
        {
          "internalType": "uint256",
          "name": "deadline",
          "type": "uint256"
        }
      ],
      "name": "sellNFT",
      "outputs": [],
      "stateMutability": "nonpayable",
      "type": "function"
    },
    {
      "inputs": [
        {
          "internalType": "address",
          "name": "nftContract",
          "type": "address"
        },
        {
          "internalType": "uint256",
          "name": "tokenId",
          "type": "uint256"
        },
        {
          "internalType": "uint256",
          "name": "royalty",
          "type": "uint256"
        }
      ],
      "name": "uploadNFT",
      "outputs": [
        {
          "internalType": "uint256",
          "name": "itemId",
          "type": "uint256"
        }
      ],
      "stateMutability": "nonpayable",
      "type": "function"
    }
  ],
  "bytecode": "0x608060405234801561001057600080fd5b50613463806100206000396000f3fe6080604052600436106100c25760003560e01c806352d7d8101161007f5780637d3f3d99116100595780637d3f3d991461025857806386cae5ae146102835780638c3531ce146102c0578063de7fe3e7146102fd576100c2565b806352d7d810146101f757806358dc2cdb14610213578063676206ed1461022f576100c2565b80630a1d7c5f146100c757806323d33df3146100f05780632dd6075d1461012d57806338fba7ac1461017557806347b3406e146101b257806351ed8288146101db575b600080fd5b3480156100d357600080fd5b506100ee60048036038101906100e9919061274f565b61033a565b005b3480156100fc57600080fd5b50610117600480360381019061011291906126d7565b6105ff565b6040516101249190612e30565b60405180910390f35b34801561013957600080fd5b50610154600480360381019061014f919061274f565b610809565b60405161016c9c9b9a99989796959493929190613089565b60405180910390f35b34801561018157600080fd5b5061019c60048036038101906101979190612700565b6108f6565b6040516101a9919061306e565b60405180910390f35b3480156101be57600080fd5b506101d960048036038101906101d4919061274f565b610c3e565b005b6101f560048036038101906101f0919061274f565b610edb565b005b610211600480360381019061020c919061274f565b611304565b005b61022d6004803603810190610228919061274f565b611688565b005b34801561023b57600080fd5b5061025660048036038101906102519190612778565b611a5b565b005b34801561026457600080fd5b5061026d611d80565b60405161027a9190612e30565b60405180910390f35b34801561028f57600080fd5b506102aa60048036038101906102a591906126d7565b611f1b565b6040516102b79190612e30565b60405180910390f35b3480156102cc57600080fd5b506102e760048036038101906102e291906126d7565b612125565b6040516102f49190612e30565b60405180910390f35b34801561030957600080fd5b50610324600480360381019061031f919061274f565b61232f565b6040516103319190613052565b60405180910390f35b3373ffffffffffffffffffffffffffffffffffffffff166001600083815260200190815260200160002060040160009054906101000a900473ffffffffffffffffffffffffffffffffffffffff1673ffffffffffffffffffffffffffffffffffffffff16146103de576040517f08c379a00000000000000000000000000000000000000000000000000000000081526004016103d590612f92565b60405180910390fd5b60026003811115610418577f4e487b7100000000000000000000000000000000000000000000000000000000600052602160045260246000fd5b60016000838152602001908152602001600020600b0160009054906101000a900460ff166003811115610474577f4e487b7100000000000000000000000000000000000000000000000000000000600052602160045260246000fd5b146104b4576040517f08c379a00000000000000000000000000000000000000000000000000000000081526004016104ab90612f32565b60405180910390fd5b4260016000838152602001908152602001600020600a01541061050c576040517f08c379a000000000000000000000000000000000000000000000000000000000815260040161050390612e52565b60405180910390fd5b6001600082815260200190815260200160002060040160009054906101000a900473ffffffffffffffffffffffffffffffffffffffff166001600083815260200190815260200160002060050160006101000a81548173ffffffffffffffffffffffffffffffffffffffff021916908373ffffffffffffffffffffffffffffffffffffffff160217905550600060016000838152602001908152602001600020600b0160006101000a81548160ff021916908360038111156105f7577f4e487b7100000000000000000000000000000000000000000000000000000000600052602160045260246000fd5b021790555050565b6060600061060d6000612582565b90508067ffffffffffffffff81111561064f577f4e487b7100000000000000000000000000000000000000000000000000000000600052604160045260246000fd5b60405190808252806020026020018201604052801561067d5781602001602082028036833780820191505090505b509150600080600190505b82811161080157600260038111156106c9577f4e487b7100000000000000000000000000000000000000000000000000000000600052602160045260246000fd5b60016000838152602001908152602001600020600b0160009054906101000a900460ff166003811115610725577f4e487b7100000000000000000000000000000000000000000000000000000000600052602160045260246000fd5b14801561079357508473ffffffffffffffffffffffffffffffffffffffff166001600083815260200190815260200160002060040160009054906101000a900473ffffffffffffffffffffffffffffffffffffffff1673ffffffffffffffffffffffffffffffffffffffff16145b156107ee57808483815181106107d2577f4e487b7100000000000000000000000000000000000000000000000000000000600052603260045260246000fd5b6020026020010181815250506001826107eb919061318d565b91505b80806107f990613315565b915050610688565b505050919050565b60016020528060005260406000206000915090508060000154908060010160009054906101000a900473ffffffffffffffffffffffffffffffffffffffff16908060020154908060030160009054906101000a900473ffffffffffffffffffffffffffffffffffffffff16908060040160009054906101000a900473ffffffffffffffffffffffffffffffffffffffff16908060050160009054906101000a900473ffffffffffffffffffffffffffffffffffffffff169080600601549080600701549080600801549080600901549080600a01549080600b0160009054906101000a900460ff1690508c565b60006109026000612590565b61090c6000612582565b90506040518061018001604052808281526020018573ffffffffffffffffffffffffffffffffffffffff1681526020018481526020013373ffffffffffffffffffffffffffffffffffffffff168152602001600073ffffffffffffffffffffffffffffffffffffffff1681526020013373ffffffffffffffffffffffffffffffffffffffff16815260200160008152602001600081526020016000815260200183815260200160008152602001600060038111156109f3577f4e487b7100000000000000000000000000000000000000000000000000000000600052602160045260246000fd5b815250600160008381526020019081526020016000206000820151816000015560208201518160010160006101000a81548173ffffffffffffffffffffffffffffffffffffffff021916908373ffffffffffffffffffffffffffffffffffffffff1602179055506040820151816002015560608201518160030160006101000a81548173ffffffffffffffffffffffffffffffffffffffff021916908373ffffffffffffffffffffffffffffffffffffffff16021790555060808201518160040160006101000a81548173ffffffffffffffffffffffffffffffffffffffff021916908373ffffffffffffffffffffffffffffffffffffffff16021790555060a08201518160050160006101000a81548173ffffffffffffffffffffffffffffffffffffffff021916908373ffffffffffffffffffffffffffffffffffffffff16021790555060c0820151816006015560e082015181600701556101008201518160080155610120820151816009015561014082015181600a015561016082015181600b0160006101000a81548160ff02191690836003811115610bc0577f4e487b7100000000000000000000000000000000000000000000000000000000600052602160045260246000fd5b02179055509050508373ffffffffffffffffffffffffffffffffffffffff166323b872dd3330866040518463ffffffff1660e01b8152600401610c0593929190612df9565b600060405180830381600087803b158015610c1f57600080fd5b505af1158015610c33573d6000803e3d6000fd5b505050509392505050565b3373ffffffffffffffffffffffffffffffffffffffff166001600083815260200190815260200160002060050160009054906101000a900473ffffffffffffffffffffffffffffffffffffffff1673ffffffffffffffffffffffffffffffffffffffff1614610ce2576040517f08c379a0000000000000000000000000000000000000000000000000000000008152600401610cd990612f92565b60405180910390fd5b60006003811115610d1c577f4e487b7100000000000000000000000000000000000000000000000000000000600052602160045260246000fd5b60016000838152602001908152602001600020600b0160009054906101000a900460ff166003811115610d78577f4e487b7100000000000000000000000000000000000000000000000000000000600052602160045260246000fd5b14610db8576040517f08c379a0000000000000000000000000000000000000000000000000000000008152600401610daf90612eb2565b60405180910390fd5b600360016000838152602001908152602001600020600b0160006101000a81548160ff02191690836003811115610e18577f4e487b7100000000000000000000000000000000000000000000000000000000600052602160045260246000fd5b02179055506001600082815260200190815260200160002060010160009054906101000a900473ffffffffffffffffffffffffffffffffffffffff1673ffffffffffffffffffffffffffffffffffffffff166323b872dd303360016000868152602001908152602001600020600201546040518463ffffffff1660e01b8152600401610ea693929190612df9565b600060405180830381600087803b158015610ec057600080fd5b505af1158015610ed4573d6000803e3d6000fd5b5050505050565b3373ffffffffffffffffffffffffffffffffffffffff166001600083815260200190815260200160002060050160009054906101000a900473ffffffffffffffffffffffffffffffffffffffff1673ffffffffffffffffffffffffffffffffffffffff161415610f80576040517f08c379a0000000000000000000000000000000000000000000000000000000008152600401610f7790612fd2565b60405180910390fd5b60016003811115610fba577f4e487b7100000000000000000000000000000000000000000000000000000000600052602160045260246000fd5b60016000838152602001908152602001600020600b0160009054906101000a900460ff166003811115611016577f4e487b7100000000000000000000000000000000000000000000000000000000600052602160045260246000fd5b14611056576040517f08c379a000000000000000000000000000000000000000000000000000000000815260040161104d90613032565b60405180910390fd5b60006001600083815260200190815260200160002060060154116110af576040517f08c379a00000000000000000000000000000000000000000000000000000000081526004016110a690612e72565b60405180910390fd5b6001600082815260200190815260200160002060060154341015611108576040517f08c379a00000000000000000000000000000000000000000000000000000000081526004016110ff90612f12565b60405180910390fd5b600060016000838152602001908152602001600020600b0160006101000a81548160ff02191690836003811115611168577f4e487b7100000000000000000000000000000000000000000000000000000000600052602160045260246000fd5b0217905550336001600083815260200190815260200160002060050160006101000a81548173ffffffffffffffffffffffffffffffffffffffff021916908373ffffffffffffffffffffffffffffffffffffffff160217905550600060646111ef6001600085815260200190815260200160002060090154346125a690919063ffffffff16565b6111f991906131e3565b90506001600083815260200190815260200160002060030160009054906101000a900473ffffffffffffffffffffffffffffffffffffffff1673ffffffffffffffffffffffffffffffffffffffff166108fc829081150290604051600060405180830381858888f19350505050158015611277573d6000803e3d6000fd5b506001600083815260200190815260200160002060050160009054906101000a900473ffffffffffffffffffffffffffffffffffffffff1673ffffffffffffffffffffffffffffffffffffffff166108fc82346112d4919061326e565b9081150290604051600060405180830381858888f193505050501580156112ff573d6000803e3d6000fd5b505050565b6001600381111561133e577f4e487b7100000000000000000000000000000000000000000000000000000000600052602160045260246000fd5b60016000838152602001908152602001600020600b0160009054906101000a900460ff16600381111561139a577f4e487b7100000000000000000000000000000000000000000000000000000000600052602160045260246000fd5b146113da576040517f08c379a00000000000000000000000000000000000000000000000000000000081526004016113d190613032565b60405180910390fd5b6000600160008381526020019081526020016000206007015411611433576040517f08c379a000000000000000000000000000000000000000000000000000000000815260040161142a90612fb2565b60405180910390fd5b600160008281526020019081526020016000206007015434101561148c576040517f08c379a000000000000000000000000000000000000000000000000000000000815260040161148390612ff2565b60405180910390fd5b600260016000838152602001908152602001600020600b0160006101000a81548160ff021916908360038111156114ec577f4e487b7100000000000000000000000000000000000000000000000000000000600052602160045260246000fd5b0217905550336001600083815260200190815260200160002060040160006101000a81548173ffffffffffffffffffffffffffffffffffffffff021916908373ffffffffffffffffffffffffffffffffffffffff160217905550600060646115736001600085815260200190815260200160002060090154346125a690919063ffffffff16565b61157d91906131e3565b90506001600083815260200190815260200160002060030160009054906101000a900473ffffffffffffffffffffffffffffffffffffffff1673ffffffffffffffffffffffffffffffffffffffff166108fc829081150290604051600060405180830381858888f193505050501580156115fb573d6000803e3d6000fd5b506001600083815260200190815260200160002060050160009054906101000a900473ffffffffffffffffffffffffffffffffffffffff1673ffffffffffffffffffffffffffffffffffffffff166108fc8234611658919061326e565b9081150290604051600060405180830381858888f19350505050158015611683573d6000803e3d6000fd5b505050565b3373ffffffffffffffffffffffffffffffffffffffff166001600083815260200190815260200160002060050160009054906101000a900473ffffffffffffffffffffffffffffffffffffffff1673ffffffffffffffffffffffffffffffffffffffff161461172c576040517f08c379a000000000000000000000000000000000000000000000000000000000815260040161172390613012565b60405180910390fd5b60026003811115611766577f4e487b7100000000000000000000000000000000000000000000000000000000600052602160045260246000fd5b60016000838152602001908152602001600020600b0160009054906101000a900460ff1660038111156117c2577f4e487b7100000000000000000000000000000000000000000000000000000000600052602160045260246000fd5b14611802576040517f08c379a00000000000000000000000000000000000000000000000000000000081526004016117f990612f32565b60405180910390fd5b600160008281526020019081526020016000206008015434101561185b576040517f08c379a000000000000000000000000000000000000000000000000000000000815260040161185290612ff2565b60405180910390fd5b4260016000838152602001908152602001600020600a015410156118b4576040517f08c379a00000000000000000000000000000000000000000000000000000000081526004016118ab90612f72565b60405180910390fd5b600060016000838152602001908152602001600020600b0160006101000a81548160ff02191690836003811115611914577f4e487b7100000000000000000000000000000000000000000000000000000000600052602160045260246000fd5b0217905550600060646119466001600085815260200190815260200160002060090154346125a690919063ffffffff16565b61195091906131e3565b90506001600083815260200190815260200160002060030160009054906101000a900473ffffffffffffffffffffffffffffffffffffffff1673ffffffffffffffffffffffffffffffffffffffff166108fc829081150290604051600060405180830381858888f193505050501580156119ce573d6000803e3d6000fd5b506001600083815260200190815260200160002060040160009054906101000a900473ffffffffffffffffffffffffffffffffffffffff1673ffffffffffffffffffffffffffffffffffffffff166108fc8234611a2b919061326e565b9081150290604051600060405180830381858888f19350505050158015611a56573d6000803e3d6000fd5b505050565b3373ffffffffffffffffffffffffffffffffffffffff166001600087815260200190815260200160002060050160009054906101000a900473ffffffffffffffffffffffffffffffffffffffff1673ffffffffffffffffffffffffffffffffffffffff1614611aff576040517f08c379a0000000000000000000000000000000000000000000000000000000008152600401611af690612f52565b60405180910390fd5b60006003811115611b39577f4e487b7100000000000000000000000000000000000000000000000000000000600052602160045260246000fd5b60016000878152602001908152602001600020600b0160009054906101000a900460ff166003811115611b95577f4e487b7100000000000000000000000000000000000000000000000000000000600052602160045260246000fd5b14611bd5576040517f08c379a0000000000000000000000000000000000000000000000000000000008152600401611bcc90612eb2565b60405180910390fd5b6000841180611be45750600083115b611c23576040517f08c379a0000000000000000000000000000000000000000000000000000000008152600401611c1a90612ef2565b60405180910390fd5b82821015611c66576040517f08c379a0000000000000000000000000000000000000000000000000000000008152600401611c5d90612ed2565b60405180910390fd5b42811015611ca9576040517f08c379a0000000000000000000000000000000000000000000000000000000008152600401611ca090612e92565b60405180910390fd5b6001806000878152602001908152602001600020600b0160006101000a81548160ff02191690836003811115611d08577f4e487b7100000000000000000000000000000000000000000000000000000000600052602160045260246000fd5b02179055508360016000878152602001908152602001600020600601819055508260016000878152602001908152602001600020600701819055508160016000878152602001908152602001600020600801819055508060016000878152602001908152602001600020600a01819055505050505050565b60606000611d8e6000612582565b90508067ffffffffffffffff811115611dd0577f4e487b7100000000000000000000000000000000000000000000000000000000600052604160045260246000fd5b604051908082528060200260200182016040528015611dfe5781602001602082028036833780820191505090505b509150600080600190505b828111611f155760016003811115611e4a577f4e487b7100000000000000000000000000000000000000000000000000000000600052602160045260246000fd5b60016000838152602001908152602001600020600b0160009054906101000a900460ff166003811115611ea6577f4e487b7100000000000000000000000000000000000000000000000000000000600052602160045260246000fd5b1415611f025780848381518110611ee6577f4e487b7100000000000000000000000000000000000000000000000000000000600052603260045260246000fd5b602002602001018181525050600182611eff919061318d565b91505b8080611f0d90613315565b915050611e09565b50505090565b60606000611f296000612582565b90508067ffffffffffffffff811115611f6b577f4e487b7100000000000000000000000000000000000000000000000000000000600052604160045260246000fd5b604051908082528060200260200182016040528015611f995781602001602082028036833780820191505090505b509150600080600190505b82811161211d5760006003811115611fe5577f4e487b7100000000000000000000000000000000000000000000000000000000600052602160045260246000fd5b60016000838152602001908152602001600020600b0160009054906101000a900460ff166003811115612041577f4e487b7100000000000000000000000000000000000000000000000000000000600052602160045260246000fd5b1480156120af57508473ffffffffffffffffffffffffffffffffffffffff166001600083815260200190815260200160002060050160009054906101000a900473ffffffffffffffffffffffffffffffffffffffff1673ffffffffffffffffffffffffffffffffffffffff16145b1561210a57808483815181106120ee577f4e487b7100000000000000000000000000000000000000000000000000000000600052603260045260246000fd5b602002602001018181525050600182612107919061318d565b91505b808061211590613315565b915050611fa4565b505050919050565b606060006121336000612582565b90508067ffffffffffffffff811115612175577f4e487b7100000000000000000000000000000000000000000000000000000000600052604160045260246000fd5b6040519080825280602002602001820160405280156121a35781602001602082028036833780820191505090505b509150600080600190505b82811161232757600260038111156121ef577f4e487b7100000000000000000000000000000000000000000000000000000000600052602160045260246000fd5b60016000838152602001908152602001600020600b0160009054906101000a900460ff16600381111561224b577f4e487b7100000000000000000000000000000000000000000000000000000000600052602160045260246000fd5b1480156122b957508473ffffffffffffffffffffffffffffffffffffffff166001600083815260200190815260200160002060050160009054906101000a900473ffffffffffffffffffffffffffffffffffffffff1673ffffffffffffffffffffffffffffffffffffffff16145b1561231457808483815181106122f8577f4e487b7100000000000000000000000000000000000000000000000000000000600052603260045260246000fd5b602002602001018181525050600182612311919061318d565b91505b808061231f90613315565b9150506121ae565b505050919050565b6123376125bc565b6001600083815260200190815260200160002060405180610180016040529081600082015481526020016001820160009054906101000a900473ffffffffffffffffffffffffffffffffffffffff1673ffffffffffffffffffffffffffffffffffffffff1673ffffffffffffffffffffffffffffffffffffffff168152602001600282015481526020016003820160009054906101000a900473ffffffffffffffffffffffffffffffffffffffff1673ffffffffffffffffffffffffffffffffffffffff1673ffffffffffffffffffffffffffffffffffffffff1681526020016004820160009054906101000a900473ffffffffffffffffffffffffffffffffffffffff1673ffffffffffffffffffffffffffffffffffffffff1673ffffffffffffffffffffffffffffffffffffffff1681526020016005820160009054906101000a900473ffffffffffffffffffffffffffffffffffffffff1673ffffffffffffffffffffffffffffffffffffffff1673ffffffffffffffffffffffffffffffffffffffff16815260200160068201548152602001600782015481526020016008820154815260200160098201548152602001600a8201548152602001600b820160009054906101000a900460ff16600381111561253f577f4e487b7100000000000000000000000000000000000000000000000000000000600052602160045260246000fd5b6003811115612577577f4e487b7100000000000000000000000000000000000000000000000000000000600052602160045260246000fd5b815250509050919050565b600081600001549050919050565b6001816000016000828254019250508190555050565b600081836125b49190613214565b905092915050565b60405180610180016040528060008152602001600073ffffffffffffffffffffffffffffffffffffffff16815260200160008152602001600073ffffffffffffffffffffffffffffffffffffffff168152602001600073ffffffffffffffffffffffffffffffffffffffff168152602001600073ffffffffffffffffffffffffffffffffffffffff1681526020016000815260200160008152602001600081526020016000815260200160008152602001600060038111156126a7577f4e487b7100000000000000000000000000000000000000000000000000000000600052602160045260246000fd5b81525090565b6000813590506126bc816133ff565b92915050565b6000813590506126d181613416565b92915050565b6000602082840312156126e957600080fd5b60006126f7848285016126ad565b91505092915050565b60008060006060848603121561271557600080fd5b6000612723868287016126ad565b9350506020612734868287016126c2565b9250506040612745868287016126c2565b9150509250925092565b60006020828403121561276157600080fd5b600061276f848285016126c2565b91505092915050565b600080600080600060a0868803121561279057600080fd5b600061279e888289016126c2565b95505060206127af888289016126c2565b94505060406127c0888289016126c2565b93505060606127d1888289016126c2565b92505060806127e2888289016126c2565b9150509295509295909350565b60006127fb8383612ddb565b60208301905092915050565b612810816132b4565b82525050565b61281f816132b4565b82525050565b61282e816132a2565b82525050565b61283d816132a2565b82525050565b600061284e82613153565b612858818561316b565b935061286383613143565b8060005b8381101561289457815161287b88826127ef565b97506128868361315e565b925050600181019050612867565b5085935050505092915050565b6128aa81613303565b82525050565b6128b981613303565b82525050565b60006128cc60128361317c565b91507f546865204e4654206973206e6f742064756500000000000000000000000000006000830152602082019050919050565b600061290c60178361317c565b91507f546865204e4654206973206e6f7420666f722073656c6c0000000000000000006000830152602082019050919050565b600061294c601d8361317c565b91507f54686520646561646c696e652073686f756c64206265206675747572650000006000830152602082019050919050565b600061298c60148361317c565b91507f4e6f74204e6f726d616c205374617465204e6f770000000000000000000000006000830152602082019050919050565b60006129cc60288361317c565b91507f5468652072656465656d207072696365206973206c657373207468616e206c6f60008301527f616e2070726963650000000000000000000000000000000000000000000000006020830152604082019050919050565b6000612a32601a8361317c565b91507f43686f6f7365206569746865722073656c6c206f72206c6f616e0000000000006000830152602082019050919050565b6000612a7260168361317c565b91507f4e6f20656e6f7567682076616c756520746f20627579000000000000000000006000830152602082019050919050565b6000612ab260188361317c565b91507f546865204e4654206973206e6f7420696e205061776e656400000000000000006000830152602082019050919050565b6000612af260198361317c565b91507f4e6f207065726d697373696f6e20746f2073656c6c204e4654000000000000006000830152602082019050919050565b6000612b32600e8361317c565b91507f546865204e4654206973206475650000000000000000000000000000000000006000830152602082019050919050565b6000612b72601d8361317c565b91507f4e6f207065726d697373696f6e20746f207265747269657665204e46540000006000830152602082019050919050565b6000612bb260178361317c565b91507f546865204e4654206973206e6f7420666f72207061776e0000000000000000006000830152602082019050919050565b6000612bf2601b8361317c565b91507f4e6f7420616c6c6f77656420746f2062757920796f7572204e465400000000006000830152602082019050919050565b6000612c3260178361317c565b91507f4e6f20656e6f7567682076616c756520746f206c6f616e0000000000000000006000830152602082019050919050565b6000612c72601b8361317c565b91507f4e6f207065726d697373696f6e20746f2072656465656d204e465400000000006000830152602082019050919050565b6000612cb2601b8361317c565b91507f546865204e4654206973206e6f7420696e205075626c697368656400000000006000830152602082019050919050565b61018082016000820151612cfc6000850182612ddb565b506020820151612d0f6020850182612825565b506040820151612d226040850182612ddb565b506060820151612d356060850182612807565b506080820151612d486080850182612807565b5060a0820151612d5b60a0850182612807565b5060c0820151612d6e60c0850182612ddb565b5060e0820151612d8160e0850182612ddb565b50610100820151612d96610100850182612ddb565b50610120820151612dab610120850182612ddb565b50610140820151612dc0610140850182612ddb565b50610160820151612dd56101608501826128a1565b50505050565b612de4816132f9565b82525050565b612df3816132f9565b82525050565b6000606082019050612e0e6000830186612834565b612e1b6020830185612834565b612e286040830184612dea565b949350505050565b60006020820190508181036000830152612e4a8184612843565b905092915050565b60006020820190508181036000830152612e6b816128bf565b9050919050565b60006020820190508181036000830152612e8b816128ff565b9050919050565b60006020820190508181036000830152612eab8161293f565b9050919050565b60006020820190508181036000830152612ecb8161297f565b9050919050565b60006020820190508181036000830152612eeb816129bf565b9050919050565b60006020820190508181036000830152612f0b81612a25565b9050919050565b60006020820190508181036000830152612f2b81612a65565b9050919050565b60006020820190508181036000830152612f4b81612aa5565b9050919050565b60006020820190508181036000830152612f6b81612ae5565b9050919050565b60006020820190508181036000830152612f8b81612b25565b9050919050565b60006020820190508181036000830152612fab81612b65565b9050919050565b60006020820190508181036000830152612fcb81612ba5565b9050919050565b60006020820190508181036000830152612feb81612be5565b9050919050565b6000602082019050818103600083015261300b81612c25565b9050919050565b6000602082019050818103600083015261302b81612c65565b9050919050565b6000602082019050818103600083015261304b81612ca5565b9050919050565b6000610180820190506130686000830184612ce5565b92915050565b60006020820190506130836000830184612dea565b92915050565b60006101808201905061309f600083018f612dea565b6130ac602083018e612834565b6130b9604083018d612dea565b6130c6606083018c612816565b6130d3608083018b612816565b6130e060a083018a612816565b6130ed60c0830189612dea565b6130fa60e0830188612dea565b613108610100830187612dea565b613116610120830186612dea565b613124610140830185612dea565b6131326101608301846128b0565b9d9c50505050505050505050505050565b6000819050602082019050919050565b600081519050919050565b6000602082019050919050565b600082825260208201905092915050565b600082825260208201905092915050565b6000613198826132f9565b91506131a3836132f9565b9250827fffffffffffffffffffffffffffffffffffffffffffffffffffffffffffffffff038211156131d8576131d761335e565b5b828201905092915050565b60006131ee826132f9565b91506131f9836132f9565b9250826132095761320861338d565b5b828204905092915050565b600061321f826132f9565b915061322a836132f9565b9250817fffffffffffffffffffffffffffffffffffffffffffffffffffffffffffffffff04831182151516156132635761326261335e565b5b828202905092915050565b6000613279826132f9565b9150613284836132f9565b9250828210156132975761329661335e565b5b828203905092915050565b60006132ad826132d9565b9050919050565b60006132bf826132d9565b9050919050565b60008190506132d4826133eb565b919050565b600073ffffffffffffffffffffffffffffffffffffffff82169050919050565b6000819050919050565b600061330e826132c6565b9050919050565b6000613320826132f9565b91507fffffffffffffffffffffffffffffffffffffffffffffffffffffffffffffffff8214156133535761335261335e565b5b600182019050919050565b7f4e487b7100000000000000000000000000000000000000000000000000000000600052601160045260246000fd5b7f4e487b7100000000000000000000000000000000000000000000000000000000600052601260045260246000fd5b7f4e487b7100000000000000000000000000000000000000000000000000000000600052602160045260246000fd5b600481106133fc576133fb6133bc565b5b50565b613408816132a2565b811461341357600080fd5b50565b61341f816132f9565b811461342a57600080fd5b5056fea26469706673582212203779b2d92c801db565bedda3e24225afa91945d0f20d76d7223b0a906dfb847864736f6c63430008000033",
  "linkReferences": {},
  "deployedLinkReferences": {}
}